:020000040800F2
:1000000060060020450200084D0200084F0200086B
:1000100051020008530200085502000800000000C9
:10002000000000000000000000000000570200086F
:1000300059020008000000005B0200085D02000891
:100040005F0200085F0200085F0200085F0200080C
:100050005F0200085F0200085F0200085F020008FC
:100060005F0200085F0200085F0200085F020008EC
:100070005F0200085F0200085F0200085F020008DC
:100080005F0200085F0200085F0200080000000035
:100090000000000000000000000000005F020008F7
:1000A0005F0200085F0200085F0200085F020008AC
:1000B0005F0200085F0200085F0200085F0200089C
:1000C0005F0200085F0200085F0200085F0200088C
:1000D0005F0200085F0200085F02000800000000E5
:1000E0005F0200085F0200085F02000800000000D5
:1000F0000000000000000000000000005F02000897
:10010000000000005F0200085F0200085F020008B4
:1001100000000000000000000000000000000000DF
:100120005F0200085F0200085F0200085F0200082B
:100130005F02000800000000000000000000000056
:100140000000000000000000000000005F02000846
:100150005F0200085F0200085F0200085F020008FB
:100160005F0200085F0200080000000000000000BD
:10017000000000000000000000000000000000007F
:10018000000000005F020008000000000000000006
:100190005F02000800F002F800F044F814A696E8A8
:1001A000000CB244B344DA4501D100F03BF8BAE8A0
:1001B0000F000FA696E83000A5EB040504EB060738
:1001C000AAEB0704A7F101074FEA15154FEA34140B
:1001D000A4F10104AC4201D300F024F813F0010FA4
:1001E00018BFFB1A43F0010300F001F8DBE71847E2
:1001F0002805000038050000704700000023002497
:1002000000250026103A28BF78C1FBD8520728BF26
:1002100030C148BF0B6070471FB500F070FA1FBDBA
:1002200010B510BD00F031F81146FFF7F5FF00F0F2
:1002300085F800F04FF803B4FFF7F2FF03BC00F0BD
:1002400057F800000948804709480047FEE7FEE7E5
:10025000FEE7FEE7FEE7FEE7FEE7FEE7FEE7FEE776
:1002600004480549054A064B704700000103000891
:100270009501000860000020600600206002002058
:1002800060020020704770477047754600F02CF8F8
:10029000AE4605006946534620F00700854618B073
:1002A00020B5FFF7DDFFBDE820404FF000064FF01E
:1002B00000074FF000084FF0000BAC46ACE8C00957
:1002C000ACE8C009ACE8C009ACE8C00921F00701FE
:1002D0008D46704710B50446AFF300802046BDE858
:1002E0001040FFF7A8BF0000004870470000002042
:1002F00001491820ABBEFEE726000200704700004F
:100300004EF68851CEF20001086840F47000086093
:100310007047000081B000200090FFE700984DF288
:100320008F01C0F20301884205DCFFE7FFE7009878
:1003300001300090F2E701B07047000080B58EB048
:1003400000200D900C9001218DF82F108DF82E00BB
:100350008DF82D008DF82C008DF82B004FF2FE60EB
:10036000ADF828004BF26660CEF2BE00099046F26E
:10037000FC00CFF2DA20089043F63001C4F202010B
:10038000086840F001000860086840F0020008605A
:10039000086840F0040008600021C4F20201086807
:1003A00045F255521043086040F20041C4F2020188
:1003B000086810430860086820F4707008600868D6
:1003C00040F4A070086040F20C41C4F202010868D9
:1003D00040F040000860086840F48070086040F613
:1003E0000C01C4F20201086840F0020008600868CD
:1003F00040F008000860FFE79DF82C00C00748B3F4
:10040000FFE740F61000C4F202000068C00758B1D0
:10041000FFE700208DF82C0001218DF82E108DF8BB
:100420002D00FFF777FF14E040F61000C4F2020041
:100430000068800700280BD5FFE700208DF82C000E
:100440008DF82E0001208DF82D00FFF763FFFFE7E8
:10045000FFE7D1E79DF82B00C007B0B3FFE700200E
:100460000C901421C4F202018E20086040F2144165
:10047000C4F20201FC20086040F61000C4F2020041
:100480000068C00758B1FFE700208DF82B0001215C
:100490008DF82E108DF82D00FFF73CFF14E040F68C
:1004A0001000C4F202000068800700280BD5FFE7A7
:1004B00000208DF82B008DF82E0001208DF82D00E6
:1004C000FFF728FFFFE7FFE796E740F61000C4F2CA
:1004D00002000068C007B8B3FFE7002001908DF864
:1004E0002F00FFF717FF01980790FFE740F6100075
:1004F000C4F202000068C007C8B1FFE70798411CBA
:1005000007914EF26131C0F2160188420EDBFFE71F
:1005100001208DF82C00FFE740F61000C4F2020025
:100520000068C00708B1FFE7F6E700E0DEE79DF8E6
:100530002C00C00708B1FFE75EE700208DF82D0012
:1005400001208DF82E0049E040F61000C4F20200B0
:1005500000688007002840D5FFE700208DF82F00B5
:100560000690FFE740F61000C4F202000068800722
:1005700000281AD5FFE70698411C06914EF261311A
:10058000C0F2160188420FDBFFE701208DF82B0037
:10059000FFE740F61000C4F2020000688007002860
:1005A00001D5FFE7F5E700E0DCE79DF82B00C00789
:1005B00008B1FFE720E7FFE740F61000C4F20200B1
:1005C00000688007002801D5FFE7F5E700208DF8D7
:1005D0002E0001208DF82D00FFE7FFE79DF82F008A
:1005E000C00760B1FFE71421C4F20201EC200860EB
:1005F00040F21441C4F20201FC200860FFE79DF8BC
:100600002E00C007B0B3FFE70C98421C48F21F5001
:10061000C5F2EB1052FB00F1481100EBD1706421E0
:1006200000FB11200C900C9846F26761C6F26661DF
:1006300050FB01F39A1002EBD37202EB8202A0EBA3
:10064000420005900C9850FB01F1881000EBD1702E
:100650000490059908A8415C1422C4F202021160BA
:100660000499405C40F21441C4F202010860FFF7B3
:1006700051FEFFE79DF82D00C00700283ED0FFE7A0
:100680000C98421E48F21F50C5F2EB1052FB00F1CD
:10069000481100EBD170642100FB11200C900C98E4
:1006A000B0F1FF3F03DCFFE700200C90FFE70C9860
:1006B00046F26761C6F2666150FB01F39A1002EBE5
:1006C000D37202EB8202A0EB420003900C9850FB25
:1006D00001F1881000EBD1700290039908A8415CE9
:1006E0001422C4F2020211600299405C40F21441EB
:1006F000C4F202010860FFF70DFEFFE77CE6F1EEB1
:10070000100A4FF6FF71C0F2C03120EA010040F03C
:100710004070E1EE100A7047280700080000002032
:0807200060060000FC01000866
:0400000508000245A8
:00000001FF
